{
  "_format": "hh-sol-artifact-1",
  "contractName": "NFTMarketplace",
  "sourceName": "contracts/NFTMarketplace.sol",
  "abi": [
    {
      "inputs": [],
      "stateMutability": "nonpayable",
      "type": "constructor"
    },
    {
      "anonymous": false,
      "inputs": [
        {
          "indexed": true,
          "internalType": "address",
          "name": "owner",
          "type": "address"
        },
        {
          "indexed": true,
          "internalType": "address",
          "name": "approved",
          "type": "address"
        },
        {
          "indexed": true,
          "internalType": "uint256",
          "name": "tokenId",
          "type": "uint256"
        }
      ],
      "name": "Approval",
      "type": "event"
    },
    {
      "anonymous": false,
      "inputs": [
        {
          "indexed": true,
          "internalType": "address",
          "name": "owner",
          "type": "address"
        },
        {
          "indexed": true,
          "internalType": "address",
          "name": "operator",
          "type": "address"
        },
        {
          "indexed": false,
          "internalType": "bool",
          "name": "approved",
          "type": "bool"
        }
      ],
      "name": "ApprovalForAll",
      "type": "event"
    },
    {
      "anonymous": false,
      "inputs": [
        {
          "indexed": true,
          "internalType": "address",
          "name": "from",
          "type": "address"
        },
        {
          "indexed": true,
          "internalType": "address",
          "name": "to",
          "type": "address"
        },
        {
          "indexed": true,
          "internalType": "uint256",
          "name": "tokenId",
          "type": "uint256"
        }
      ],
      "name": "Transfer",
      "type": "event"
    },
    {
      "inputs": [
        {
          "internalType": "address",
          "name": "to",
          "type": "address"
        },
        {
          "internalType": "uint256",
          "name": "tokenId",
          "type": "uint256"
        }
      ],
      "name": "approve",
      "outputs": [],
      "stateMutability": "nonpayable",
      "type": "function"
    },
    {
      "inputs": [
        {
          "internalType": "address",
          "name": "owner",
          "type": "address"
        }
      ],
      "name": "balanceOf",
      "outputs": [
        {
          "internalType": "uint256",
          "name": "",
          "type": "uint256"
        }
      ],
      "stateMutability": "view",
      "type": "function"
    },
    {
      "inputs": [
        {
          "internalType": "string",
          "name": "tokenURI",
          "type": "string"
        },
        {
          "internalType": "uint256",
          "name": "price",
          "type": "uint256"
        }
      ],
      "name": "createToken",
      "outputs": [
        {
          "internalType": "uint256",
          "name": "",
          "type": "uint256"
        }
      ],
      "stateMutability": "payable",
      "type": "function"
    },
    {
      "inputs": [
        {
          "internalType": "uint256",
          "name": "tokenId",
          "type": "uint256"
        }
      ],
      "name": "executeSale",
      "outputs": [],
      "stateMutability": "payable",
      "type": "function"
    },
    {
      "inputs": [],
      "name": "getAllNFTs",
      "outputs": [
        {
          "components": [
            {
              "internalType": "uint256",
              "name": "tokenId",
              "type": "uint256"
            },
            {
              "internalType": "address payable",
              "name": "owner",
              "type": "address"
            },
            {
              "internalType": "address payable",
              "name": "seller",
              "type": "address"
            },
            {
              "internalType": "uint256",
              "name": "price",
              "type": "uint256"
            },
            {
              "internalType": "bool",
              "name": "currentlyListed",
              "type": "bool"
            }
          ],
          "internalType": "struct NFTMarketplace.ListedToken[]",
          "name": "",
          "type": "tuple[]"
        }
      ],
      "stateMutability": "view",
      "type": "function"
    },
    {
      "inputs": [
        {
          "internalType": "uint256",
          "name": "tokenId",
          "type": "uint256"
        }
      ],
      "name": "getApproved",
      "outputs": [
        {
          "internalType": "address",
          "name": "",
          "type": "address"
        }
      ],
      "stateMutability": "view",
      "type": "function"
    },
    {
      "inputs": [],
      "name": "getCurrentToken",
      "outputs": [
        {
          "internalType": "uint256",
          "name": "",
          "type": "uint256"
        }
      ],
      "stateMutability": "view",
      "type": "function"
    },
    {
      "inputs": [],
      "name": "getLatestIdtoListedToken",
      "outputs": [
        {
          "components": [
            {
              "internalType": "uint256",
              "name": "tokenId",
              "type": "uint256"
            },
            {
              "internalType": "address payable",
              "name": "owner",
              "type": "address"
            },
            {
              "internalType": "address payable",
              "name": "seller",
              "type": "address"
            },
            {
              "internalType": "uint256",
              "name": "price",
              "type": "uint256"
            },
            {
              "internalType": "bool",
              "name": "currentlyListed",
              "type": "bool"
            }
          ],
          "internalType": "struct NFTMarketplace.ListedToken",
          "name": "",
          "type": "tuple"
        }
      ],
      "stateMutability": "view",
      "type": "function"
    },
    {
      "inputs": [],
      "name": "getListPrice",
      "outputs": [
        {
          "internalType": "uint256",
          "name": "",
          "type": "uint256"
        }
      ],
      "stateMutability": "view",
      "type": "function"
    },
    {
      "inputs": [
        {
          "internalType": "uint256",
          "name": "tokenId",
          "type": "uint256"
        }
      ],
      "name": "getListedForTokenId",
      "outputs": [
        {
          "components": [
            {
              "internalType": "uint256",
              "name": "tokenId",
              "type": "uint256"
            },
            {
              "internalType": "address payable",
              "name": "owner",
              "type": "address"
            },
            {
              "internalType": "address payable",
              "name": "seller",
              "type": "address"
            },
            {
              "internalType": "uint256",
              "name": "price",
              "type": "uint256"
            },
            {
              "internalType": "bool",
              "name": "currentlyListed",
              "type": "bool"
            }
          ],
          "internalType": "struct NFTMarketplace.ListedToken",
          "name": "",
          "type": "tuple"
        }
      ],
      "stateMutability": "view",
      "type": "function"
    },
    {
      "inputs": [],
      "name": "getMyNFTs",
      "outputs": [
        {
          "components": [
            {
              "internalType": "uint256",
              "name": "tokenId",
              "type": "uint256"
            },
            {
              "internalType": "address payable",
              "name": "owner",
              "type": "address"
            },
            {
              "internalType": "address payable",
              "name": "seller",
              "type": "address"
            },
            {
              "internalType": "uint256",
              "name": "price",
              "type": "uint256"
            },
            {
              "internalType": "bool",
              "name": "currentlyListed",
              "type": "bool"
            }
          ],
          "internalType": "struct NFTMarketplace.ListedToken[]",
          "name": "",
          "type": "tuple[]"
        }
      ],
      "stateMutability": "view",
      "type": "function"
    },
    {
      "inputs": [
        {
          "internalType": "address",
          "name": "owner",
          "type": "address"
        },
        {
          "internalType": "address",
          "name": "operator",
          "type": "address"
        }
      ],
      "name": "isApprovedForAll",
      "outputs": [
        {
          "internalType": "bool",
          "name": "",
          "type": "bool"
        }
      ],
      "stateMutability": "view",
      "type": "function"
    },
    {
      "inputs": [],
      "name": "name",
      "outputs": [
        {
          "internalType": "string",
          "name": "",
          "type": "string"
        }
      ],
      "stateMutability": "view",
      "type": "function"
    },
    {
      "inputs": [
        {
          "internalType": "uint256",
          "name": "tokenId",
          "type": "uint256"
        }
      ],
      "name": "ownerOf",
      "outputs": [
        {
          "internalType": "address",
          "name": "",
          "type": "address"
        }
      ],
      "stateMutability": "view",
      "type": "function"
    },
    {
      "inputs": [
        {
          "internalType": "address",
          "name": "from",
          "type": "address"
        },
        {
          "internalType": "address",
          "name": "to",
          "type": "address"
        },
        {
          "internalType": "uint256",
          "name": "tokenId",
          "type": "uint256"
        }
      ],
      "name": "safeTransferFrom",
      "outputs": [],
      "stateMutability": "nonpayable",
      "type": "function"
    },
    {
      "inputs": [
        {
          "internalType": "address",
          "name": "from",
          "type": "address"
        },
        {
          "internalType": "address",
          "name": "to",
          "type": "address"
        },
        {
          "internalType": "uint256",
          "name": "tokenId",
          "type": "uint256"
        },
        {
          "internalType": "bytes",
          "name": "data",
          "type": "bytes"
        }
      ],
      "name": "safeTransferFrom",
      "outputs": [],
      "stateMutability": "nonpayable",
      "type": "function"
    },
    {
      "inputs": [
        {
          "internalType": "address",
          "name": "operator",
          "type": "address"
        },
        {
          "internalType": "bool",
          "name": "approved",
          "type": "bool"
        }
      ],
      "name": "setApprovalForAll",
      "outputs": [],
      "stateMutability": "nonpayable",
      "type": "function"
    },
    {
      "inputs": [
        {
          "internalType": "bytes4",
          "name": "interfaceId",
          "type": "bytes4"
        }
      ],
      "name": "supportsInterface",
      "outputs": [
        {
          "internalType": "bool",
          "name": "",
          "type": "bool"
        }
      ],
      "stateMutability": "view",
      "type": "function"
    },
    {
      "inputs": [],
      "name": "symbol",
      "outputs": [
        {
          "internalType": "string",
          "name": "",
          "type": "string"
        }
      ],
      "stateMutability": "view",
      "type": "function"
    },
    {
      "inputs": [
        {
          "internalType": "uint256",
          "name": "tokenId",
          "type": "uint256"
        }
      ],
      "name": "tokenURI",
      "outputs": [
        {
          "internalType": "string",
          "name": "",
          "type": "string"
        }
      ],
      "stateMutability": "view",
      "type": "function"
    },
    {
      "inputs": [
        {
          "internalType": "address",
          "name": "from",
          "type": "address"
        },
        {
          "internalType": "address",
          "name": "to",
          "type": "address"
        },
        {
          "internalType": "uint256",
          "name": "tokenId",
          "type": "uint256"
        }
      ],
      "name": "transferFrom",
      "outputs": [],
      "stateMutability": "nonpayable",
      "type": "function"
    },
    {
      "inputs": [
        {
          "internalType": "uint256",
          "name": "_listPrice",
          "type": "uint256"
        }
      ],
      "name": "updateListPrice",
      "outputs": [],
      "stateMutability": "payable",
      "type": "function"
    }
  ],
  "bytecode": "0x6080604052662386f26fc10000600a553480156200001c57600080fd5b50604080518082018252600e81526d4e46544d61726b6574706c61636560901b6020808301918252835180850190945260048452634e46544d60e01b9084015281519192916200006f91600091620000a0565b50805162000085906001906020840190620000a0565b5050600780546001600160a01b031916331790555062000183565b828054620000ae9062000146565b90600052602060002090601f016020900481019282620000d257600085556200011d565b82601f10620000ed57805160ff19168380011785556200011d565b828001600101855582156200011d579182015b828111156200011d57825182559160200191906001019062000100565b506200012b9291506200012f565b5090565b5b808211156200012b576000815560010162000130565b600181811c908216806200015b57607f821691505b602082108114156200017d57634e487b7160e01b600052602260045260246000fd5b50919050565b61211e80620001936000396000f3fe6080604052600436106101355760003560e01c806372b3b620116100ab578063b88d4fde1161006f578063b88d4fde14610349578063c322579c14610369578063c87b56dd1461037c578063e0391b091461039c578063e985e9c5146103b1578063ef2d1746146103fa57600080fd5b806372b3b620146102ce57806395d89b41146102e157806398c3df16146102f65780639b1225c414610316578063a22cb4651461032957600080fd5b806323b872dd116100fd57806323b872dd1461020d57806342842e0e1461022d578063629cb2e41461024d5780636352211e1461026f57806368f1945f1461028f57806370a08231146102ae57600080fd5b806301ffc9a71461013a578063066937711461016f57806306fdde0314610191578063081812fc146101b3578063095ea7b3146101eb575b600080fd5b34801561014657600080fd5b5061015a610155366004611d24565b61040f565b60405190151581526020015b60405180910390f35b34801561017b57600080fd5b50610184610461565b6040516101669190611fe7565b34801561019d57600080fd5b506101a66104d8565b6040516101669190611ef0565b3480156101bf57600080fd5b506101d36101ce366004611db2565b61056a565b6040516001600160a01b039091168152602001610166565b3480156101f757600080fd5b5061020b610206366004611cfb565b610591565b005b34801561021957600080fd5b5061020b610228366004611c0d565b6106ac565b34801561023957600080fd5b5061020b610248366004611c0d565b6106dd565b34801561025957600080fd5b506102626106f8565b6040516101669190611ea2565b34801561027b57600080fd5b506101d361028a366004611db2565b61093d565b34801561029b57600080fd5b50600a545b604051908152602001610166565b3480156102ba57600080fd5b506102a06102c9366004611bc1565b61099d565b6102a06102dc366004611d5c565b610a23565b3480156102ed57600080fd5b506101a6610b11565b34801561030257600080fd5b50610184610311366004611db2565b610b20565b61020b610324366004611db2565b610b8a565b34801561033557600080fd5b5061020b610344366004611cc1565b610ce1565b34801561035557600080fd5b5061020b610364366004611c48565b610cf0565b61020b610377366004611db2565b610d28565b34801561038857600080fd5b506101a6610397366004611db2565b610d97565b3480156103a857600080fd5b50610262610ea8565b3480156103bd57600080fd5b5061015a6103cc366004611bdb565b6001600160a01b03918216600090815260056020908152604080832093909416825291909152205460ff1690565b34801561040657600080fd5b506102a0610fef565b60006001600160e01b031982166380ac58cd60e01b148061044057506001600160e01b03198216635b5e139f60e01b145b8061045b57506301ffc9a760e01b6001600160e01b03198316145b92915050565b610469611a68565b600061047460085490565b6000908152600b6020908152604091829020825160a0810184528154815260018201546001600160a01b03908116938201939093526002820154909216928201929092526003820154606082015260049091015460ff161515608082015292915050565b6060600080546104e790612050565b80601f016020809104026020016040519081016040528092919081815260200182805461051390612050565b80156105605780601f1061053557610100808354040283529160200191610560565b820191906000526020600020905b81548152906001019060200180831161054357829003601f168201915b5050505050905090565b600061057582610fff565b506000908152600460205260409020546001600160a01b031690565b600061059c8261093d565b9050806001600160a01b0316836001600160a01b0316141561060f5760405162461bcd60e51b815260206004820152602160248201527f4552433732313a20617070726f76616c20746f2063757272656e74206f776e656044820152603960f91b60648201526084015b60405180910390fd5b336001600160a01b038216148061062b575061062b81336103cc565b61069d5760405162461bcd60e51b815260206004820152603d60248201527f4552433732313a20617070726f76652063616c6c6572206973206e6f7420746f60448201527f6b656e206f776e6572206f7220617070726f76656420666f7220616c6c0000006064820152608401610606565b6106a78383611061565b505050565b6106b633826110cf565b6106d25760405162461bcd60e51b815260040161060690611f03565b6106a783838361114d565b6106a783838360405180602001604052806000815250610cf0565b6060600061070560085490565b905060008060005b8381101561079d5733600b6000610725846001611ff5565b81526020810191909152604001600020600101546001600160a01b03161480610778575033600b6000610759846001611ff5565b81526020810191909152604001600020600201546001600160a01b0316145b1561078b57610788600184611ff5565b92505b806107958161208b565b91505061070d565b5060008267ffffffffffffffff8111156107c757634e487b7160e01b600052604160045260246000fd5b60405190808252806020026020018201604052801561080057816020015b6107ed611a68565b8152602001906001900390816107e55790505b50905060005b848110156109345733600b600061081e846001611ff5565b81526020810191909152604001600020600101546001600160a01b03161480610871575033600b6000610852846001611ff5565b81526020810191909152604001600020600201546001600160a01b0316145b15610922576000610883826001611ff5565b6000818152600b6020908152604091829020825160a0810184528154815260018201546001600160a01b039081169382019390935260028201549092169282019290925260038201546060820152600482015460ff16151560808201528551929350909185908790811061090757634e487b7160e01b600052603260045260246000fd5b602090810291909101015261091d600186611ff5565b945050505b8061092c8161208b565b915050610806565b50949350505050565b6000818152600260205260408120546001600160a01b03168061045b5760405162461bcd60e51b8152602060048201526018602482015277115490cdcc8c4e881a5b9d985b1a59081d1bdad95b88125160421b6044820152606401610606565b60006001600160a01b038216610a075760405162461bcd60e51b815260206004820152602960248201527f4552433732313a2061646472657373207a65726f206973206e6f7420612076616044820152683634b21037bbb732b960b91b6064820152608401610606565b506001600160a01b031660009081526003602052604090205490565b6000600a543414610a765760405162461bcd60e51b815260206004820152601960248201527f53656e6420656e6f75676820657468657220746f206c697374000000000000006044820152606401610606565b60008211610ad15760405162461bcd60e51b815260206004820152602260248201527f4d616b652073757265207468652070726963652069736e2774206e6567617469604482015261766560f01b6064820152608401610606565b610adf600880546001019055565b6000610aea60085490565b9050610af633826112be565b610b0081856112d8565b610b0a8184611372565b9392505050565b6060600180546104e790612050565b610b28611a68565b506000908152600b6020908152604091829020825160a0810184528154815260018201546001600160a01b03908116938201939093526002820154909216928201929092526003820154606082015260049091015460ff161515608082015290565b6000818152600b60205260409020600301543414610c105760405162461bcd60e51b815260206004820152603f60248201527f506c65617365207375626d6974207468652061736b696e67207072696365206660448201527f6f7220746865204e465420696e206f7264657220746f207075726368617365006064820152608401610606565b6000818152600b602052604090206002810180546004909201805460ff191660011790556001600160a01b03198216331790556001600160a01b0316610c5a600980546001019055565b610c6530338461114d565b610c6f3083610591565b600754600a546040516001600160a01b039092169181156108fc0291906000818181858888f19350505050158015610cab573d6000803e3d6000fd5b506040516001600160a01b038216903480156108fc02916000818181858888f193505050501580156106a7573d6000803e3d6000fd5b610cec33838361140f565b5050565b610cfa33836110cf565b610d165760405162461bcd60e51b815260040161060690611f03565b610d22848484846114de565b50505050565b6007546001600160a01b03163314610d925760405162461bcd60e51b815260206004820152602760248201527f4f6e6c79206f776e65722063616e2075706461746520746865206c697374696e6044820152666720707269636560c81b6064820152608401610606565b600a55565b6060610da282610fff565b60008281526006602052604081208054610dbb90612050565b80601f0160208091040260200160405190810160405280929190818152602001828054610de790612050565b8015610e345780601f10610e0957610100808354040283529160200191610e34565b820191906000526020600020905b815481529060010190602001808311610e1757829003601f168201915b505050505090506000610e5260408051602081019091526000815290565b9050805160001415610e65575092915050565b815115610e97578082604051602001610e7f929190611e36565b60405160208183030381529060405292505050919050565b610ea084611511565b949350505050565b60606000610eb560085490565b905060008167ffffffffffffffff811115610ee057634e487b7160e01b600052604160045260246000fd5b604051908082528060200260200182016040528015610f1957816020015b610f06611a68565b815260200190600190039081610efe5790505b5090506000805b83811015610fe6576000610f35826001611ff5565b6000818152600b6020908152604091829020825160a0810184528154815260018201546001600160a01b039081169382019390935260028201549092169282019290925260038201546060820152600482015460ff161515608082015286519293509091869086908110610fb957634e487b7160e01b600052603260045260246000fd5b6020908102919091010152610fcf600185611ff5565b935050508080610fde9061208b565b915050610f20565b50909392505050565b6000610ffa60085490565b905090565b6000818152600260205260409020546001600160a01b031661105e5760405162461bcd60e51b8152602060048201526018602482015277115490cdcc8c4e881a5b9d985b1a59081d1bdad95b88125160421b6044820152606401610606565b50565b600081815260046020526040902080546001600160a01b0319166001600160a01b03841690811790915581906110968261093d565b6001600160a01b03167f8c5be1e5ebec7d5bd14f71427d1e84f3dd0314c0f7b2291e5b200ac8c7c3b92560405160405180910390a45050565b6000806110db8361093d565b9050806001600160a01b0316846001600160a01b0316148061112257506001600160a01b0380821660009081526005602090815260408083209388168352929052205460ff165b80610ea05750836001600160a01b031661113b8461056a565b6001600160a01b031614949350505050565b826001600160a01b03166111608261093d565b6001600160a01b0316146111865760405162461bcd60e51b815260040161060690611fa2565b6001600160a01b0382166111e85760405162461bcd60e51b8152602060048201526024808201527f4552433732313a207472616e7366657220746f20746865207a65726f206164646044820152637265737360e01b6064820152608401610606565b6111f58383836001611584565b826001600160a01b03166112088261093d565b6001600160a01b03161461122e5760405162461bcd60e51b815260040161060690611fa2565b600081815260046020908152604080832080546001600160a01b03199081169091556001600160a01b0387811680865260038552838620805460001901905590871680865283862080546001019055868652600290945282852080549092168417909155905184937fddf252ad1be2c89b69c2b068fc378daa952ba7f163c4a11628f55a4df523b3ef91a4505050565b610cec82826040518060200160405280600081525061160c565b6000828152600260205260409020546001600160a01b03166113535760405162461bcd60e51b815260206004820152602e60248201527f45524337323155524953746f726167653a2055524920736574206f66206e6f6e60448201526d32bc34b9ba32b73a103a37b5b2b760911b6064820152608401610606565b600082815260066020908152604090912082516106a792840190611a96565b6040805160a081018252838152306020808301828152338486018181526060860188815260016080880181815260008c8152600b9097529890952096518755925193860180546001600160a01b039586166001600160a01b03199182161790915590516002870180549190951691161790925551600384015592516004909201805492151560ff1990931692909217909155610cec91908461114d565b816001600160a01b0316836001600160a01b031614156114715760405162461bcd60e51b815260206004820152601960248201527f4552433732313a20617070726f766520746f2063616c6c6572000000000000006044820152606401610606565b6001600160a01b03838116600081815260056020908152604080832094871680845294825291829020805460ff191686151590811790915591519182527f17307eab39ab6107e8899845ad3d59bd9653f200f220920489ca2b5937696c31910160405180910390a3505050565b6114e984848461114d565b6114f58484848461163f565b610d225760405162461bcd60e51b815260040161060690611f50565b606061151c82610fff565b600061153360408051602081019091526000815290565b905060008151116115535760405180602001604052806000815250610b0a565b8061155d8461174c565b60405160200161156e929190611e36565b6040516020818303038152906040529392505050565b6001811115610d22576001600160a01b038416156115ca576001600160a01b038416600090815260036020526040812080548392906115c490849061200d565b90915550505b6001600160a01b03831615610d22576001600160a01b03831660009081526003602052604081208054839290611601908490611ff5565b909155505050505050565b61161683836117f7565b611623600084848461163f565b6106a75760405162461bcd60e51b815260040161060690611f50565b60006001600160a01b0384163b1561174157604051630a85bd0160e11b81526001600160a01b0385169063150b7a0290611683903390899088908890600401611e65565b602060405180830381600087803b15801561169d57600080fd5b505af19250505080156116cd575060408051601f3d908101601f191682019092526116ca91810190611d40565b60015b611727573d8080156116fb576040519150601f19603f3d011682016040523d82523d6000602084013e611700565b606091505b50805161171f5760405162461bcd60e51b815260040161060690611f50565b805181602001fd5b6001600160e01b031916630a85bd0160e11b149050610ea0565b506001949350505050565b6060600061175983611990565b600101905060008167ffffffffffffffff81111561178757634e487b7160e01b600052604160045260246000fd5b6040519080825280601f01601f1916602001820160405280156117b1576020820181803683370190505b5090508181016020015b600019016f181899199a1a9b1b9c1cb0b131b232b360811b600a86061a8153600a85049450846117ea576117ef565b6117bb565b509392505050565b6001600160a01b03821661184d5760405162461bcd60e51b815260206004820181905260248201527f4552433732313a206d696e7420746f20746865207a65726f20616464726573736044820152606401610606565b6000818152600260205260409020546001600160a01b0316156118b25760405162461bcd60e51b815260206004820152601c60248201527f4552433732313a20746f6b656e20616c7265616479206d696e746564000000006044820152606401610606565b6118c0600083836001611584565b6000818152600260205260409020546001600160a01b0316156119255760405162461bcd60e51b815260206004820152601c60248201527f4552433732313a20746f6b656e20616c7265616479206d696e746564000000006044820152606401610606565b6001600160a01b038216600081815260036020908152604080832080546001019055848352600290915280822080546001600160a01b0319168417905551839291907fddf252ad1be2c89b69c2b068fc378daa952ba7f163c4a11628f55a4df523b3ef908290a45050565b60008072184f03e93ff9f4daa797ed6e38ed64bf6a1f0160401b83106119cf5772184f03e93ff9f4daa797ed6e38ed64bf6a1f0160401b830492506040015b6d04ee2d6d415b85acef810000000083106119fb576d04ee2d6d415b85acef8100000000830492506020015b662386f26fc100008310611a1957662386f26fc10000830492506010015b6305f5e1008310611a31576305f5e100830492506008015b6127108310611a4557612710830492506004015b60648310611a57576064830492506002015b600a831061045b5760010192915050565b6040805160a08101825260008082526020820181905291810182905260608101829052608081019190915290565b828054611aa290612050565b90600052602060002090601f016020900481019282611ac45760008555611b0a565b82601f10611add57805160ff1916838001178555611b0a565b82800160010185558215611b0a579182015b82811115611b0a578251825591602001919060010190611aef565b50611b16929150611b1a565b5090565b5b80821115611b165760008155600101611b1b565b600067ffffffffffffffff80841115611b4a57611b4a6120bc565b604051601f8501601f19908116603f01168101908282118183101715611b7257611b726120bc565b81604052809350858152868686011115611b8b57600080fd5b858560208301376000602087830101525050509392505050565b80356001600160a01b0381168114611bbc57600080fd5b919050565b600060208284031215611bd2578081fd5b610b0a82611ba5565b60008060408385031215611bed578081fd5b611bf683611ba5565b9150611c0460208401611ba5565b90509250929050565b600080600060608486031215611c21578081fd5b611c2a84611ba5565b9250611c3860208501611ba5565b9150604084013590509250925092565b60008060008060808587031215611c5d578081fd5b611c6685611ba5565b9350611c7460208601611ba5565b925060408501359150606085013567ffffffffffffffff811115611c96578182fd5b8501601f81018713611ca6578182fd5b611cb587823560208401611b2f565b91505092959194509250565b60008060408385031215611cd3578182fd5b611cdc83611ba5565b915060208301358015158114611cf0578182fd5b809150509250929050565b60008060408385031215611d0d578182fd5b611d1683611ba5565b946020939093013593505050565b600060208284031215611d35578081fd5b8135610b0a816120d2565b600060208284031215611d51578081fd5b8151610b0a816120d2565b60008060408385031215611d6e578182fd5b823567ffffffffffffffff811115611d84578283fd5b8301601f81018513611d94578283fd5b611da385823560208401611b2f565b95602094909401359450505050565b600060208284031215611dc3578081fd5b5035919050565b60008151808452611de2816020860160208601612024565b601f01601f19169290920160200192915050565b805182526020808201516001600160a01b039081169184019190915260408083015190911690830152606080820151908301526080908101511515910152565b60008351611e48818460208801612024565b835190830190611e5c818360208801612024565b01949350505050565b6001600160a01b0385811682528416602082015260408101839052608060608201819052600090611e9890830184611dca565b9695505050505050565b6020808252825182820181905260009190848201906040850190845b81811015611ee457611ed1838551611df6565b9284019260a09290920191600101611ebe565b50909695505050505050565b602081526000610b0a6020830184611dca565b6020808252602d908201527f4552433732313a2063616c6c6572206973206e6f7420746f6b656e206f776e6560408201526c1c881bdc88185c1c1c9bdd9959609a1b606082015260800190565b60208082526032908201527f4552433732313a207472616e7366657220746f206e6f6e20455243373231526560408201527131b2b4bb32b91034b6b83632b6b2b73a32b960711b606082015260800190565b60208082526025908201527f4552433732313a207472616e736665722066726f6d20696e636f72726563742060408201526437bbb732b960d91b606082015260800190565b60a0810161045b8284611df6565b60008219821115612008576120086120a6565b500190565b60008282101561201f5761201f6120a6565b500390565b60005b8381101561203f578181015183820152602001612027565b83811115610d225750506000910152565b600181811c9082168061206457607f821691505b6020821081141561208557634e487b7160e01b600052602260045260246000fd5b50919050565b600060001982141561209f5761209f6120a6565b5060010190565b634e487b7160e01b600052601160045260246000fd5b634e487b7160e01b600052604160045260246000fd5b6001600160e01b03198116811461105e57600080fdfea26469706673582212202b5ba5bdcf95e0dfecce0d577a4c5ba53e21c151bbc9e5913b02debba7adadd164736f6c63430008040033",
  "linkReferences": {},
  "deployedLinkReferences": {}
}